:10021900020A00000208003C020E0000020C003C29
:10000E001202031201DF120238120255120026806C
:01001E00FBE6
:10002600E5101201B9008831009E3200B433007E1B
:100036004200564600744C006A52006053007E62CD
:1000460000566600746C006A72006073000000C996
:100056001202431201DF759966221202551201DF60
:10006600759973221202671201DF759972221202C4
:100076005E1201DF75996C2212024C1201DF75992E
:10008600622275080075093C750C00750D3C12015D
:10009600DF75993175103122750800750964750C84
:1000A60000750D641201DF759932751032227508DC
:1000B6000075098C750C00750D8C1201DF7599336E
:0400C600751033225C
:0300230002022AAC
:0E022A00309805C298859910309902C2993219
:03000B0002015699
:10015600C0E0C0D0050BE50B7002050A050FE50FE0
:100166007002050EC3E50B94C8E50A9400400675B7
:100176000A00750B01D3E50B9509E50A95085004AD
:10018600D2968002C296C3E50F94C8E50E9400404D
:1001960006750E00750F01D3E50B950DE50A950C56
:1001A6005004D2978002C297758CFF758ACED0D044
:0301B600D0E03264
:10020300759850758921758CFF758ACE758DFD752E
:060213008BFD75B81022FE
:0B023800D2AFD2ACD2A9D28CD28E2261
:0401DF007F647E00BB
:1001E300E4FDFCC3ED9FEC9E5015E4FAFB0BBB0052
:0F01F300010ABA01F8BBF4F50DBD00010C80E460
:0102020022D9
:09024300C290D291D292C2932222
:09024C00D290C291C292D2932219
:09025500C290C291C292C2932230
:09025E00C290C291D292C2932217
:09026700C290D291C292C293220E
:030000000200CA31
:0C00CA00787FE4F6D8FD7581100201116A
:1001B900D083D082F8E4937012740193700DA3A3D5
:1001C90093F8740193F5828883E4737402936860E9
:0601D900EFA3A3A380DFE9
:1000D60002000EE493A3F8E493A34003F68001F232
:1000E60008DFF48029E493A3F85407240CC8C3332B
:1000F600C4540F4420C8834004F456800146F6DFFA
:10010600E4800B0102040810204080900219E47E6E
:10011600019360BCA3FF543F30E509541FFEE493EE
:10012600A360010ECF54C025E060A840B8E493A3B5
:10013600FAE493A3F8E493A3C8C582C8CAC583CAE0
:10014600F0A3C8C582C8CAC583CADFE9DEE780BE98
:0102290000D4
:00000001FF
