:020000040800F2
:100000007806002045010008013000080330000890
:10001000073000080B3000080F3000080000000017
:100020000000000000000000000000001330000885
:1000300015300008000000001730000819300008D3
:100040005F0100085F0100085F0100081B30000825
:100050005F0100085F0100085F0100085F01000800
:100060005F0100085F0100085F0100085F010008F0
:100070005F0100085F0100085F0100085F010008E0
:100080005F0100085F0100085F0100085F010008D0
:100090005F0100085F0100085F0100085F010008C0
:1000A0005F0100085F0100085F0100085F010008B0
:1000B0005F0100085F0100085F0100085F010008A0
:1000C0005F0100085F0100085F0100085F01000890
:1000D0005F0100085F0100085F0100085F01000880
:1000E0005F0100085F0100085F0100085F01000870
:1000F0005F0100085F0100085F0100085F01000860
:100100005F0100085F0100085F0100085F0100084F
:100110005F0100085F0100085F0100085F0100083F
:100120005F0100085F0100085F0100085F0100082F
:10013000DFF80CD005F066FA00480047492D0008AA
:10014000780600200648804706480047FEE7FEE79D
:10015000FEE7FEE7FEE7FEE7FEE7FEE7FEE7FEE777
:1001600047020008310100080CB500200190009002
:100170006C48006840F480306A49086000BF6948F4
:10018000006800F4003000900198401C0190009835
:1001900018B90198B0F5A06FF1D16248006800F479
:1001A000003010B10120009001E000200090009884
:1001B000012843D15C48006840F010005A490860AB
:1001C0000846006820F0030008600846006840F018
:1001D0000200086053484068524948600846406839
:1001E00048600846406840F48060486008464068BF
:1001F00020F47C1048600846406840F4E8104860ED
:100200000846006840F08070086000BF45480068FC
:1002100000F000700028F9D04248406820F0030048
:10022000404948600846406840F00200486000BF0E
:100230003C48406800F00C000828F9D10CBD10B50E
:10024000FFF792FF10BD10B53648006840F001007E
:1002500034490860084640683449084031494860DC
:1002600008460068324908402E4908600846006880
:1002700020F4802008600846406820F4FE004860B2
:100280004FF41F008860FFF7DAFF4FF00060294944
:10029000086010BD10B5002100200022214B5B68D2
:1002A00003F00C0121B1042906D0082928D107E068
:1002B000214B224C236027E01F4B204C236023E07E
:1002C000184B5B6803F47010164B5B6803F48032C4
:1002D000022303EB904022B9194B4343174C236090
:1002E0000DE0104B5B6803F4003323B1144B434320
:1002F000124C236003E0104B4343104C236003E097
:100300000D4B0E4C236000BF00BF064B5B68C3F370
:1003100003130C4CE15C094B1B68CB40074C23607A
:1003200010BD000000100240002002400000FFF855
:10033000FFFFF6FE08ED00E000127A00000000204A
:1003400000093D000400002031490143314A116099
:10035000704770B5002100230F22C47804B32D4CE0
:10036000246804F4E064C4F5E064210AC1F10403E4
:10037000CA40447804FA03F1847814402143090107
:10038000254C0678A155047804F01F050124AC40E3
:1003900005786D11AD0005F1E025C5F8004109E0D3
:1003A000047804F01F050124AC401C4D067876113A
:1003B00045F8264070BD1A4A0A400243154B1B1FE0
:1003C0001A60704739B1134A121D12680243114B6B
:1003D0001B1D1A6006E00F4A121D126882430D4B66
:1003E0001B1D1A607047042808D14FF0E0210969ED
:1003F00041F004014FF0E022116107E04FF0E021ED
:10040000096921F004014FF0E022116170470000FA
:100410000000FA050CED00E000E400E080E100E0FF
:1004200080FFFF1F10B5012000F01AFF002000F030
:1004300017FF10BD2A49086070472949091F086045
:100440007047274984310860704701460020254ADB
:1004500010884FF67F4210400843224A10807047B0
:10046000014600201F4A10884FF680721040084352
:100470001C4A1080704708B500220092194A2C3A95
:100480000092009A02440092009A116008BD08B5DB
:1004900001460020009013482C3800900098084432
:1004A00000900098008808BD0D489C300068C0B2DC
:1004B00070470C480830008840F0010009490831B5
:1004C000088070470648A0300068C0B270470548F1
:1004D0000830008840F00200024908310880704767
:1004E00004860D422C6C004030B943F2DB028100DF
:1004F000A1F1C0410A6005E043F2D2028100A1F1FE
:10050000C0410A606FF07042411C8900A1F1C041F6
:100510000A608100A1F1C041C1F804217047102890
:100520000AD118214FF020421166402151664FF048
:10053000FC319166D16610E01821F74A1160402124
:100540004FF02042C2F884104FF0FC31F24A0832DA
:1005500011604FF02042C2F88C1070471820EE490D
:100560002031086000200906C1F8A4004FF0FC30DB
:10057000E94928310860091D0860091D08607047B5
:10058000D0E901121143C268114302691143426963
:10059000114382691143C2691143026A1143426ADD
:1005A0001143826A1143C26A1143026B114302680C
:1005B0009200A2F1C0421160816808290BD1016844
:1005C0008900A1F1C041096841F040020168890039
:1005D000A1F1C0410A60416B0968426B526841EA6F
:1005E0000211426B926841EA0221426B928941EA10
:1005F0000241426B128A41EA0251426B127D41EA8A
:100600000261426B926911430268521C9200A2F18E
:10061000C0421160C16AB1F5804F1BD1816B09687E
:10062000826B526841EA0211826B926841EA0221B0
:10063000826B128A41EA0251826B127D41EA0261A9
:10064000826B9269114302689200A2F1C042C2F823
:10065000041107E06FF0704201688900A1F1C04108
:10066000C1F80421704730B50021002200234468FE
:1006700044F0080485682C43C5682C4305692C4365
:10068000456944EA4524856944EA4531C4692468DA
:10069000C5696D6844EA0524C5692D8944EA0544A5
:1006A000C5692D7B44EA0562046A2468056A6D68A1
:1006B00044EA0524056A2D8944EA0544056A2D7B30
:1006C00044EA05630468102C05D14FF020442166EC
:1006D000A266E36608E0904C21604FF02044C4F825
:1006E00088208D4C0C34236030BD016841F010012E
:1006F000426841EA4221826841EA4231864A203218
:100700001160C1680968C268526841EA0221C26882
:10071000128941EA0241C268127B41EA02617E4AC3
:1007200028321160016909680269526841EA0221B0
:100730000269128941EA02410269127B41EA0261BF
:10074000754A2C321160416909684269526841EA70
:1007500002214269128941EA02414269127B41EA5F
:1007600002614FF02042C2F8B010704700210160D2
:100770000221416000218160C160016141618161AC
:10078000C16101624FF480514162490081620021E0
:10079000C16201630F21426B1160426B5160FF2106
:1007A000426B91600F21426BD160426B1161426BD1
:1007B00051610021426B91610F21826B1160826B4C
:1007C0005160FF21826B91600F21826BD160826B3F
:1007D0001161826B51610021826B91617047102120
:1007E0000160002141608160C160016141618161FE
:1007F000FC21C2691160C2695160C2699160C2691D
:10080000D160026A1160026A5160026A9160026AF4
:10081000D16070470021016041608160FC21C268A5
:100820001160C2685160C2689160C268D16002699B
:10083000116002695160026991600269D160426988
:10084000116042695160426991604269D1607047AC
:1008500051B18200A2F1C042126842F0010382004D
:10086000A2F1C042136009E08200A2F1C042126806
:100870002A4B1A408300A3F1C0431A60704799B114
:10088000102808D14FF02042126E42F004024FF0BF
:1008900020431A661DE0204A126842F004024FF01D
:1008A0002043C3F8802014E0102809D14FF02042E3
:1008B000126E1A4BDB1E1A404FF020431A6608E0F6
:1008C000154A1268154BDB1E1A404FF02043C3F83F
:1008D0008020704748B110492031096841F0040177
:1008E0004FF02042C2F8A01009E00B4920310968FE
:1008F0000A4AD21E11404FF02042C2F8A0107047A1
:10090000B9B110280CD14FF02042126E42F04002D3
:100910004FF020431A661FE0800000A0FEFF0F008A
:10092000724A126842F040024FF02043C3F8802020
:1009300012E0102808D14FF02042126E6C4B1A4082
:100940004FF020431A6607E0684A1268684B1A4065
:100950004FF02043C3F88020704701460020102943
:1009600003D14FF02042506F02E0604A1432106809
:10097000704710B5F2B1102807D14FF020435B6EDD
:100980000B434FF02044636632E0B0F5807F08D11E
:10099000564B1B1D1B680B434FF02044C4F884309A
:1009A00026E0524B24331B680B434FF02044C4F81D
:1009B000A4301DE0102807D14FF020435B6E8B431D
:1009C0004FF02044636613E0B0F5807F08D1474BB9
:1009D0001B1D1B688B434FF02044C4F8843007E094
:1009E000424B24331B688B434FF02044C4F8A4309F
:1009F00010BD10B5024600200023102A03D14FF08D
:100A00002044636E09E0B2F5807F03D1374C241D8A
:100A1000236802E0354C2434236803EA01040CB156
:100A2000012000E0002010BD102807D14FF0204227
:100A3000526E8A434FF020435A6613E0B0F5807F30
:100A400008D12A4A121D12688A434FF02043C3F886
:100A5000842007E0254A243212688A434FF020435D
:100A6000C3F8A420704770B502460020002300247C
:100A70000025102A03D14FF02046736E09E0B2F52D
:100A8000807F03D1194E361D336802E0174E24369D
:100A9000336803EA010403EAD10514B10DB1012062
:100AA00000E0002070BD102808D14FF02042526EA7
:100AB00022EAD1024FF020435A6615E0B0F5807F5C
:100AC00009D10A4A121D126822EAD1024FF02043CE
:100AD000C3F8842008E0054A2432126822EAD102D1
:100AE0004FF02043C3F8A42070470000800000A00E
:100AF000BFFF0F0010B50446CC48844208D1012145
:100B0000042000F093FB0021042000F08FFB46E05E
:100B1000C748844208D10121082000F087FB00214A
:100B2000082000F083FB3AE0C248844208D101214A
:100B3000102000F07BFB0021102000F077FB2EE05E
:100B4000BD48844208D10121202000F06FFB002124
:100B5000202000F06BFB22E0B848844208D101213C
:100B6000402000F063FB0021402000F05FFB16E016
:100B7000B348844208D10121802000F057FB0021B6
:100B8000802000F053FB0AE0AE48844207D10121E7
:100B9000801500F04BFB0021A01500F047FB10BDB5
:100BA00010B50121084600F041FB0021012000F0B2
:100BB0003DFB10BD2DE9F041024600250026002036
:100BC00000230024002791F803C00CF00F0591F8D2
:100BD00003C00CF0100CBCF1000F03D091F802C060
:100BE0004CEA050591F800C0BCF1000F31D0146843
:100BF00000202BE04FF0010C0CFA00F3B1F800C01C
:100C00000CEA03069E4220D183004FF00F0C0CFA31
:100C100003F7BC4305FA03FC4CEA040491F803C053
:100C2000BCF1280F06D14FF0010C0CFA00FCC2F801
:100C300014C00AE091F803C0BCF1480F05D14FF091
:100C4000010C0CFA00FCC2F810C0401C0828D1D3DB
:100C50001460B1F800C0BCF1FF0F34DD546800200F
:100C60002EE000F1080C4FF0010808FA0CF3B1F87F
:100C700000C00CEA03069E4221D183004FF00F0C06
:100C80000CFA03F7BC4305FA03FC4CEA040491F8A0
:100C900003C0BCF1280F05D100F1080C08FA0CF8CC
:100CA000C2F8148091F803C0BCF1480F07D100F1DD
:100CB000080C4FF0010808FA0CF8C2F81080401C2C
:100CC0000828CED35460BDE8F0814FF6FF71018053
:100CD000022181700421C170704702460020936890
:100CE0000B400BB1012000E00020704701468868EE
:100CF00080B2704702460020D3680B400BB1012040
:100D000000E0002070470146C86880B2704701616A
:100D10007047416170470AB1016100E0416170476D
:100D2000C16070474FF480320A4382618161826101
:100D300082698269704702460020434B18684FF66B
:100D40008073184040EA021008433F4B1860704718
:100D50003E49C8617047F0B50A46002300240021CF
:100D6000002500F00046B6F1004F02D1364EF16981
:100D700001E0354E7168C0F3034583B200F44016BC
:100D8000B6F5401F08D121F070612F4E766826F02D
:100D900070662D4F7E6012E000F48016B6F5801F5D
:100DA00006D1032606FA05F4A14341F0706106E07E
:100DB000460D360103FA06F6B14341F0706122B1E7
:100DC000460D360103FA06F6314300F00046B6F14F
:100DD000004F02D11C4EF16101E01B4E7160F0BD6D
:100DE00030B500228B071C0F0F2303FA04F2164BB9
:100DF00008338C1053F824309343134C08348D106F
:100E000044F8253023468C1053F824308C07240FE7
:100E100000FA04F423430C4C08348D1044F82530B8
:100E200030BD0A49DC31086070470000000801400D
:100E3000000C014000100140001401400018014066
:100E4000001C014000200140000001400000204241
:100E500010B50121080700F0F6F900214FF080508D
:100E600000F0F1F910BD2A4908627047284908616D
:100E7000704701460020274A106820F0E000084330
:100E8000106070472249A0310860704710B50246D3
:100E90000020204B186820F00300104318601E4B00
:100EA0001B6843F004031C4C2360012901D130BFAF
:100EB00000E020BF184B1B6823F00403164C23608E
:100EC00010BD1448006840F004001249086008464C
:100ED000006840F0020008600F48006840F004001D
:100EE0000D49086000BF00BF30BF704701460020B9
:100EF000084A52680A400AB1012000E00020704709
:100F00000449096841EA8001024A11607047000003
:100F100000000E420070004010ED00E0DF48006865
:100F200040F00100DD49086008464068DC4908409F
:100F3000DA49486008460068DA490840D74908603D
:100F40000846006820F4802008600846406820F4C5
:100F5000FE0048604FF41F0088607047CF49096861
:100F600021F48031CD4A11601146096821F48021B5
:100F70001160B0F5803F03D0B0F5802F0ED106E0B0
:100F8000C649096841F48031C44A116007E0C34989
:100F9000096841F4A021C14A116000E000BF00BF10
:100FA000704710B501460022002300204A11012A93
:100FB00002D1BA4C236806E0022A02D1B74C236A58
:100FC00001E0B64C636A01F01F02012494401C400A
:100FD0000CB1012000E0002010BD38B500200090C9
:100FE0000024002500BF3120FFF7DBFF05460098F5
:100FF000401C00900098B0F5A06F01D0002DF2D0F9
:101000003120FFF7CEFF08B1012400E00024204684
:1010100038BD01460020A14A106820F0F80040EADF
:10102000C10010607047A049086070470246002068
:101030009A4B586820F47C1042EA01031843974BFE
:101040005860704798490866704701460020934AE7
:10105000506820F003000843506070478F48406894
:1010600000F00C007047014600208C4A506820F0C8
:10107000F00008435060704701460020874A5068DE
:1010800020F4E06008435060704701460020834A26
:10109000506820F4605040EAC1005060704729B1A8
:1010A0007E4A527A02437D4B5A7204E07B4A527A5E
:1010B00082437A4B5A7270477B49D8310860704737
:1010C00001460020754A506820F4404008435060B3
:1010D00070470021714A20321170704A82F8201046
:1010E000012802D004280AD104E001216B4A2032F1
:1010F000117005E00521694A2032117000E000BF3F
:1011000000BF70476949086070476449096A014334
:10111000624A11627047654944390860704730B5CA
:1011200000210022002400235C4D6D6805F00C01B5
:1011300021B1042905D0082923D105E05C4D0560C3
:1011400022E05B4D05601FE0544D6D6805F47012A0
:10115000524D6D6805F48034022505EB92421CB9AE
:10116000544D554305600BE04C4D6D6805F400355A
:101170001DB1504D5543056002E04D4D554305608E
:1011800002E04B4D056000BF00BF444D6D6805F0A7
:10119000F0010909484D6B5C0568DD4045603F4D35
:1011A0006D6805F4E061090A434D6B5C4568DD40FC
:1011B00085603A4D6D6805F46051C90A3E4D6B5C1F
:1011C0004568DD40C560354D6D6805F44041890BCB
:1011D0003A4D6B5CC568B5FBF3F5056130BD29B1CF
:1011E0002E4A526902432D4B5A6104E02B4A526940
:1011F00082432A4B5A61704729B1284A92690243B7
:10120000264B9A6104E0254A92698243234B9A61F6
:10121000704729B1214AD2690243204BDA6104E0C8
:101220001E4AD26982431D4BDA61704729B11B4ABD
:10123000D2680243194BDA6004E0184AD26882434C
:10124000164BDA60704729B1144A12690243134BF6
:101250001A6104E0114A12698243104B1A61704707
:1012600012494039086070470F49C86470470B49FC
:10127000C87170470948406A40F080700749486269
:10128000704701460020054A92680A400AB10120D1
:1012900000E000207047014988727047001002404A
:1012A0000000FFF8FFFFF6FE0000424280044242C9
:1012B00000127A0000093D001400002024000020E4
:1012C00029B1504A128802434E4B1A8004E04D4A1D
:1012D000128882434B4B1A8070474A48001D008891
:1012E00040F010004749091D088070474548001D1F
:1012F00000884FF6EF7108404249091D0880704789
:10130000002140481C300188001F008841EA00404D
:10131000704700B50246FFF7E0FF100C394918315D
:101320000880091D0A80FFF7E1FF00BD00B50246F5
:10133000FFF7D3FFC2F30340324908310880091D8B
:101340000A80FFF7D3FF00BD00B50246FFF7C5FFD7
:10135000100C2C4920310880091D0A80FFF7C6FFB8
:1013600000BD00202749103109880907080B2549CD
:10137000143109880843704700BF2248001D0088C7
:1013800000F020000028F8D070471E48001D00889B
:101390004FF6F77108401B49091D088000BF194826
:1013A000001D008800F008000028F8D070470146B2
:1013B0000020144A121D12880A400AB1012000E0E0
:1013C000002070470F49091D098881430D4A121DED
:1013D00011807047014600200A4A121D12880A40F7
:1013E000D0B2084A12880A4012B108B1012000E0C8
:1013F000002070470349091D09888143014A121DD5
:10140000118070470028004010B50446FE48844211
:1014100008D10121C014FFF709FF0021E014FFF7F4
:1014200005FFC4E0B4F1804F08D101210846FFF761
:101430000AFF00210120FFF706FFB8E0F3488442CD
:1014400008D101210220FFF7FEFE00210220FFF754
:10145000FAFEACE0EE48844208D101210420FFF7F7
:10146000F2FE00210420FFF7EEFEA0E0E9488442EE
:1014700008D101210820FFF7E6FE00210820FFF730
:10148000E2FE94E0E448844208D101211020FFF7F5
:10149000DAFE00211020FFF7D6FE88E0DF48844204
:1014A00008D101212020FFF7CEFE00212020FFF7E8
:1014B000CAFE7CE0DA48844208D101214014FFF7DB
:1014C000B5FE00216014FFF7B1FE70E0D5488442FC
:1014D00009D10121C804FFF7A9FE00214FF4002023
:1014E000FFF7A4FE63E0D048844209D1012108053A
:1014F000FFF79CFE00214FF48010FFF797FE56E0A7
:10150000CA48844209D101214805FFF78FFE002116
:101510004FF40010FFF78AFE49E0C548844208D125
:1015200001214020FFF78FFE00214020FFF78BFEB6
:101530003DE0C048844208D101218020FFF783FEAE
:1015400000218020FFF77FFE31E0BB48844208D1B4
:1015500001218015FFF777FE0021A015FFF773FE2C
:1015600025E0B648844209D101210804FFF75EFE58
:1015700000214FF48030FFF759FE18E0B048844254
:1015800009D101214804FFF751FE00214FF400303A
:10159000FFF74CFE0BE0AB48844208D101218804E0
:1015A000FFF744FE00214FF48020FFF73FFE10BDFF
:1015B00000220288944B98420ED0994B98420BD04F
:1015C000B0F1804F08D0914B984205D0904B984293
:1015D00002D0904B984204D14FF68F731A404B883B
:1015E0001A438D4B984207D08C4B984204D04FF64B
:1015F000FF431A40CB881A4302808B8883850B886F
:101600000385814B98420BD0854B984208D08B4B79
:10161000984205D08A4B984202D08A4B984201D119
:101620000B7A038601238382704770B50024002261
:101630000023058C4FF6FE7635400584028C8388A6
:10164000048B4FF68F752C40B51E2C400D882C4313
:10165000751E2A400D892A434D882A436A4DA842A7
:101660000BD06F4DA84208D0744DA84205D0744DE0
:10167000A84202D0734DA84213D14FF6F7752A4005
:101680004D892A434FF6FB752A408D882A434FF631
:10169000FF652B404FF6FF552B408D892B43CD899D
:1016A0002B4383800483CD888586028470BD70B50A
:1016B000002400220023058C4FF6EF763540058488
:1016C000028C8388048B48F6FF752C404FF6FF454B
:1016D0002C400D884FF6FF7606EA05252C434FF681
:1016E000DF752A400D8906EA05152A434D8806EA6A
:1016F00005152A43444DA84202D0494DA8421DD1A8
:101700004FF67F752A404D894FF6FF7606EA05159C
:101710002A434FF6BF752A408D8806EA05152A43ED
:101720004FF6FF352B404FF2FF752B408D8906EAAF
:1017300085052B43CD8906EA85052B4383800483E9
:10174000CD880587028470BD70B500240022002377
:10175000058C4FF6FF6635400584028C8388848BA8
:101760004FF68F752C404FF6FC752C400D882C439E
:101770004FF6FF552A400D894FF6FF7606EA0525FC
:101780002A434D8806EA05252A431F4DA84202D068
:10179000234DA8421DD14FF2FF752A404D894FF6C7
:1017A000FF7606EA05252A434FF6FF352A408D8845
:1017B00006EA05252A434EF6FF752B404DF6FF75C8
:1017C0002B408D8906EA05152B43CD8906EA0515C0
:1017D0002B4383808483CD888587028470BD70B558
:1017E000002200230024058C4EF6FF763540058448
:1017F000038C8488828B48F6FF752A404FF6FF459C
:101800002A400D8820E00000002C01400004004028
:1018100000080040000C0040001000400014004090
:1018200000340140004C0140005001400054014090
:1018300000180040001C0040002000400040014013
:1018400000440140004801404FF6FF7606EA0525B6
:101850002A434DF6FF752B400D8906EA05352B43CB
:101860004D8806EA05352B43FA4DA84202D0FA4DC1
:10187000A84208D14BF6FF752C408D894FF6FF76B4
:1018800006EA85152C4384808283CD88A0F84050D9
:10189000038470BD828B4FF2FF331A408283828BA8
:1018A0004FF6FF7303EA01231A4382837047F0B5B2
:1018B0000C461546002200210026078C4EF6FF7CC0
:1018C00007EA0C070784828B018C4FF6FF7707EA43
:1018D000043640F6FF473A404FF6FF7707EA052700
:1018E0003A434FF6FF7707EA03373A43D94FB842F6
:1018F0000ED0D94FB8420BD0B0F1804F08D0D74F9F
:10190000B84205D0D64FB84202D0D64FB84206D121
:101910004DF6FF77394046F48057394305E047F6E6
:10192000FF57394044F48057394382830184F0BD26
:10193000828B4FF6F3731A408283828B0A43828331
:101940007047F0B50C461546002200210026078C92
:101950004FF6FF6C07EA0C070784828B018C4FF669
:10196000FF7707EA04264FF60C773A404FF6FF77E9
:1019700007EA03172F433A43B64FB8420ED0B64F8B
:10198000B8420BD0B0F1804F08D0B44FB84205D068
:10199000B34FB84202D0B34FB84206D14FF6FF570B
:1019A000394046F48077394305E04FF2FF5739401C
:1019B00044F48077394382830184F0BD028B4FF277
:1019C000FF331A400283028B4FF6FF7303EA0123B1
:1019D0001A4302837047F0B50C46154600220021D9
:1019E0000026078C4FF6EF7C07EA0C070784028B72
:1019F000018C4FF6FF7707EA041640F6FF473A409E
:101A00004FF6FF7707EA03373A434FF6FF7707EAC7
:101A100005273A438F4FB8420ED08F4FB8420BD0B4
:101A2000B0F1804F08D08D4FB84205D08C4FB842EE
:101A300002D08C4FB84206D14FF6DF77394046F0DE
:101A40001007394305E04FF65F77394044F010073F
:101A5000394302830184F0BD028B4FF6F3731A40C1
:101A60000283028B0A4302837047F0B50C46154689
:101A700000220021068C4FF6FE773E400684028B42
:101A8000018C4FF60C7632407E1C06EA03162E437C
:101A90003243704EB0420ED06F4EB0420BD0B0F118
:101AA000804F08D06D4EB04205D06D4EB04202D08E
:101AB0006C4EB04206D14FF6FD76314044F001063F
:101AC000314305E04FF6F576314044F001063143ED
:101AD00002830184F0BD70B505460C465D48854221
:101AE0000ED05D4885420BD0B5F1804F08D05B48E1
:101AF000854205D05A48854202D05A48854200D1D5
:101B000000E000BF208850B92389A2886188284658
:101B1000FFF7ABFFE1882846FFF79EFF25E020880E
:101B200004280AD12389A28861882846FFF753FF39
:101B3000E1882846FFF742FF17E0208808280AD1ED
:101B40002389A28861882846FFF7FBFEE1882846A2
:101B5000FFF7EEFE09E02389A28861882846FFF797
:101B6000A6FEE1882846FFF795FE70BD2DE9F041FD
:101B700005460C4600260127608808B9022600E0C9
:101B80000026A088012801D1022700E00127208833
:101B9000A0B92389A28861882846FFF766FFE188FB
:101BA0002846FFF759FF23893A4631462846FFF772
:101BB00012FFE1882846FFF701FF13E02389A2887E
:101BC00061882846FFF707FFE1882846FFF7F6FE01
:101BD00023893A4631462846FFF747FFE1882846E1
:101BE000FFF73AFFBDE8F0810A884B881A438B88DB
:101BF0001A43CB881A430B891A434B891A438B89A2
:101C00001A43A0F8442070474FF6FF7181800021ED
:101C10000180C180418001727047002101804180B4
:101C20008180C180018141818181C1817047002112
:101C300001804180012181800021C18001817047A4
:101C40000021018041808180C180018141818181A9
:101C500070470000002C01400034014000040040A7
:101C600000080040000C004021B1028842F001024F
:101C7000028004E002884FF6FE731A40028070472B
:101C800031B1B0F8442042F40042A0F8442005E00D
:101C9000B0F84420C2F30E02A0F8442070471AB1F5
:101CA00083890B43838102E083898B43838170475F
:101CB0008182704741EA0203A0F8483070471AB1A8
:101CC00083890B43838102E083898B43838170473F
:101CD00001894FF6F8721140018170470A460021D0
:101CE00001894FF68F73194011430181704730B558
:101CF00004460D4629462046FFF7F0FF208940F0B4
:101D00000700208130BD2DE9F04104460D461646FE
:101D10001F46602D06D13B46012231462046FFF783
:101D20005AFE05E03B46012231462046FFF79DFE64
:101D300029462046FFF7D2FF208940F00700208186
:101D4000BDE8F08130B50C4600210189C9B24FF6DB
:101D5000FF7505EA0325154325432943018130BD5D
:101D60002DE9F04105460E461746984600244346A5
:101D70003A4631462846FFF7E5FF2C894FF6F870C2
:101D8000044044F007044FF68F70044044F07004A0
:101D90002C81BDE8F081F0B504460D4616461F467D
:101DA0003B46324629462046FFF7CCFF208940F4C7
:101DB00080402081F0BD0185828270470A46002163
:101DC00001884FF68F731940114301807047F0B5B9
:101DD0000C4615461E460021002200230189028B75
:101DE000038C4FF6F877394021434FF6FC473A40D1
:101DF00040F201173A434FF6DD773B404FF6FF774D
:101E000007EA06172F433B43018102830384F0BD99
:101E10000A460021018B4FF68F731940114301834D
:101E200070470A460021018B48F6FF7319404FF6B0
:101E3000FF7303EA02231943018370470A46002116
:101E4000818B4FF68F7319401143818370470A4687
:101E50000021818B48F6FF7319404FF6FF7303EAA8
:101E6000022319438183704721B1028842F0800226
:101E7000028004E002884FF67F731A4002807047A8
:101E800021B1828842F00402828004E082884FF609
:101E9000FB731A408280704721B1828842F00802A9
:101EA000828004E082884FF6F7731A408280704780
:101EB00021B1828842F00102828004E082884FF6DC
:101EC000FE731A40828070470A460021018B4FF64C
:101ED000F77319401143018370470A460021018BB3
:101EE0004FF2FF7319404FF6FF7303EA02231943C1
:101EF000018370470A460021818B4FF6F773194022
:101F00001143818370470A460021818B4FF2FF7392
:101F100019404FF6FF7303EA022319438183704788
:101F20000A460021018B4FF6FB73194011430183D0
:101F300070470A460021018B4FF6FF3319404FF6D8
:101F4000FF7303EA02231943018370470A46002105
:101F5000818B4FF6FB7319401143818370470A460A
:101F60000021818B4FF6FF3319404FF6FF7303EAD0
:101F700002231943818370470A460021018B4FF6E3
:101F80007F7319401143018370470A460021018B7A
:101F9000C1F30E014FF6FF7303EA022319430183D5
:101FA00070470A460021818B4FF67F731940114319
:101FB000818370470A460021818BC1F30E014FF6E1
:101FC000FF7303EA02231943818370470A46002105
:101FD000018C4FF6FD7319401143018470470A4686
:101FE0000021018C4FF6F7731940114301847047AB
:101FF0000A460021018C4FF6DF7319404FF6FF733C
:1020000003EA02131943018470470A460021018C38
:102010004FF67F7319404FF6FF7303EA021319431B
:10202000018470470A460021018C4FF6FF53194086
:102030004FF6FF7303EA02231943018470470A46EF
:102040000021018C4FF2FF7319404FF6FF7303EA32
:1020500002231943018470470A460021018C4DF682
:10206000FF7319404FF6FF7303EA023319430184EB
:10207000704730B5002301248C40A3B2048C9C43EC
:102080000484048C02FA01F5ADB22C43048430BD03
:1020900030B5002304248C40A3B2048C9C430484F8
:1020A000048C02FA01F5ADB22C43048430BD70B546
:1020B0000346002000241846183001258D40ACB29C
:1020C0001D8CA5431D8409B1082909D100EB6100CD
:1020D000056825F0700505600568154305600EE08C
:1020E0000D1FC5F34E052844056825F4E04505603D
:1020F00005684FF6FF7606EA02263543056070BD97
:1021000021B1028842F00202028004E002884FF608
:10211000FD731A400280704721B1028842F0040228
:10212000028004E002884FF6FB731A400280704779
:1021300021B1828842F08002828004E082884FF6DA
:102140007F731A408280704702884FF6F7731A40F7
:10215000028002880A430280704782884FF68F739C
:102160001A40828082880A438280704702894FF633
:10217000F8731A40028102890A430281704702897A
:102180004FF67F731A40028102890A430281704729
:1021900081847047818570478186704701877047C9
:1021A00081877047A0F84010704702884FF6FF43C0
:1021B0001A40028002880A43028070470146888ED6
:1021C00070470146088F70470146888F7047014667
:1021D000B1F8400070470146888C70470146088D71
:1021E000704702460020138A0B400BB1012000E02B
:1021F00000207047CA430282704730B50246002073
:1022000000230024158A05EA0103958905EA0104E3
:1022100013B10CB1012000E0002030BDCA4302829E
:102220007047000010B50446FB48844209D10121E3
:102230008803FEF7FBFF00214FF48040FEF7F6FF16
:1022400032E0F648844209D101214804FEF7FBFF41
:1022500000214FF40030FEF7F6FF25E0F0488442FD
:1022600009D101218804FEF7EEFF00214FF4802000
:10227000FEF7E9FF18E0EB48844209D10121C804C8
:10228000FEF7E1FF00214FF40020FEF7DCFF0BE03A
:10229000E548844208D101210805FEF7D4FF00215A
:1022A0004FF48010FEF7CFFF10BD2DE9F04786B048
:1022B00005460E460024A24600BFA1460027B0896D
:1022C00000B100BF2F462C8A4CF6FF700440F08806
:1022D00004432C82AC894EF6F3100440B088318957
:1022E0000843718908430443AC81AC8A4FF6FF4030
:1022F0000440B0890443AC8201A8FEF710FFC64831
:10230000874202D1DDF810A001E0DDF80CA0A88919
:1023100000F4004040B10AEBCA0000EB0A1031683B
:102320004900B0FBF1F807E00AEBCA0000EB0A1025
:1023300031688900B0FBF1F86420B8FBF0F00401CB
:102340002009642101FB1089A88900F4004040B1F4
:10235000322000EBC900B0FBF1F000F007000443AD
:1023600008E0322000EB09106421B0FBF1F000F02E
:102370000F0004432C8106B0BDE8F0874FF41651DE
:10238000016000218180C18001810C2141810021F7
:102390008181704710B502460020108A4FF2FF037A
:1023A00018400B884C8823438C882343CC882343D4
:1023B0001843108210BD0021018041808180C180BE
:1023C000704721B1828942F40052828104E08289FF
:1023D0004DF6FF731A4082817047F0B50346002422
:1023E00000260025002040F66A17B94200D100BF40
:1023F0001846C1F3421401F01F06012707FA06F53B
:10240000012C01D10C3004E0022C01D1103000E08D
:1024100014301AB107682F43076002E00768AF4322
:102420000760F0BD1AB1838A0B43838202E0838A7E
:102430008B4383827047028A4FF6F0731A40028200
:10244000028A0A430282704782894FF2FF731A4060
:10245000828182890A438281704721B1828942F058
:102460000202828104E082894FF6FD731A40828164
:102470007047028A4FF6DF731A400282028A0A43CB
:102480000282704721B1028A42F48042028204E053
:10249000028A4BF6FF731A4002827047C1F30802AA
:1024A0008280704701468888C0F3080070478189A0
:1024B00041F0010181817047028BD2B20283028B0D
:1024C00042EA012202837047028B02F47F420283B8
:1024D000028B0A430283704721B1828A42F02002B4
:1024E000828204E0828A4FF6DF731A40828270474C
:1024F00021B1828A42F01002828204E0828A4FF681
:10250000EF731A408282704721B1828A42F008023A
:10251000828204E0828A4FF6F7731A408282704703
:1025200021B1828942F40042828103E08289C2F3B0
:102530000E028281704721B1828A42F40062828257
:1025400004E0828A4FF2FF731A4082827047828AC7
:102550004FF6FB731A408282828A0A438282704756
:1025600021B1828A42F00202828204E0828A4FF61E
:10257000FD731A408282704702460020B1F5007F49
:1025800000D100BF13880B400BB1012000E00020F8
:10259000704701F40072B2F5007F00D100BFCA435A
:1025A0000280704770B502460024002300250020F9
:1025B00040F66A16B14200D100BFC1F3421501F0E6
:1025C0001F03012606FA03F3012D02D19689334039
:1025D00006E0022D02D1168A334001E0968A33408C
:1025E0000C12012606FA04F41688344013B10CB11B
:1025F000012000E0002070BD10B50022002340F64D
:102600006A14A14200D100BF0A1201249440A3B26F
:10261000DC43048010BD000000380140004400404D
:1026200000480040004C0040005000402DE9F041BF
:10263000B4B006460C46154606F5E1472146384635
:1026400001F0CFF8FE4802F05AFA4FF4784002F059
:1026500068FA28680090FBA102A8D5E9013203F0CE
:102660004BFA02F04FFAB0F8068002A9404602F099
:10267000BCF94FF4FC6002F054FA20680090F1A11C
:1026800002A8D4E9013203F037FA02F03BFAC0881D
:1026900000EB400080044FEA104802A9404602F0D7
:1026A000A4F934B0BDE8F08101B502E00098401E05
:1026B000009000980028F9D108BD0FB400B595B07E
:1026C00000201090E5480078401CE4490870E44878
:1026D00002F015FA0021084602F017FAD84802F075
:1026E0000EFA4FF4FC6002F01CFADE4802F007FA22
:1026F0004FF6E07002F015FA00236922A02178203D
:1027000002F082F84FF6E07002F00BFA0023642228
:10271000A021782002F078F8002011904EE04FF6CA
:10272000E07002F0FEF9119880F00040039002F092
:1027300024FECDE9040103F06DFE0022CA4BCDE971
:10274000060102F006FD0022C84BCDE9080102F0A7
:1027500059FCCDE90A0102F0F7FD80B20D90119805
:1027600080F00040039002F008FECDE9040103F080
:1027700003FE0022BC4BCDE9060102F0EAFC002278
:10278000BB4BCDE9080102F03DFCCDE90A0102F0A6
:10279000DBFD80B2012305220C900D9902F034F884
:1027A000119802F0EAFDB34AB34BCDE90A0102F0F9
:1027B00029FCCDE90C0102F00BFE1190119802F0FA
:1027C000DCFDAE4AAE4BCDE90C0102F0E9FDA6D32B
:1027D00018980F9017980E9016980D9002F09AFD89
:1027E00014900E98C0EB00108000009002F092FD53
:1027F0000190149902F070FBA249029002F0C4FB10
:1028000004900F9802F086FD0390049902F064FB97
:10281000059002F0B2FD994A9B4BCDE9060102F00A
:1028200098FC0022994BCDE9080102F004FD934A7F
:10283000974BCDE90A0102F086FCCDE90C0102F0CC
:10284000C7FD12909349149802F09EFB06900E98D3
:1028500002F060FD0590069902F03EFB079002F041
:102860008CFD8D4A8D4BCDE9080102F072FC834A44
:10287000874BCDE90A0102F066FCCDE90C0102F0BC
:10288000A7FD139086498748006802F0BDFD7CD003
:1028900083498548006802F0B7FDF8D08049834835
:1028A000006802F0B1FDF2D0002002F03AF97F4852
:1028B000006802F062FDCDE9040103F0ABFD0022E7
:1028C0007B4BCDE9060102F044FC0022674BCDE9C9
:1028D000080102F097FBCDE90A0102F035FD80B254
:1028E0000D907248006802F048FDCDE9040103F044
:1028F00043FD00226E4BCDE9060102F02AFC0022C6
:102900005B4BCDE9080102F07DFBCDE90A0102F045
:102910001BFD80B20C900246A02178200D9B01F097
:10292000E1FE002002F0FDF85F48006802F025FD9E
:10293000CDE9040103F06EFD00225E4BCDE90601F6
:1029400002F007FC0022494BCDE9080102F05AFBD6
:10295000CDE90A0102F0F8FC80B20D9052480068FF
:1029600002F00BFDCDE9040103F006FD0022514BFE
:10297000CDE9060102F0EDFB00223D4BCDE9080157
:1029800002F040FBCDE90A0100E09DE002F0DCFC32
:1029900080B20C900246A02178200D9B01F0A2FE8F
:1029A000002002F0BEF83F48006802F0E6FC3A4A18
:1029B0003A4BCDE9000102F0CCFB304A344BCDE973
:1029C000020102F0C0FBCDE9040103F023FD002267
:1029D000394BCDE9060102F0BCFB0022234BCDE9C7
:1029E000080102F00FFBCDE90A0102F0ADFC80B254
:1029F0000D902C48006802F0C0FC274A274BCDE917
:102A0000000102F0A6FB1D4A214BCDE9020102F0B4
:102A10009AFBCDE9040103F0AFFC0022264BCDE97F
:102A2000060102F096FB0022114BCDE9080102F0ED
:102A3000E9FACDE90A0102F087FC80B20C903DE092
:102A4000580200202020202025302E32643A2530E4
:102A50002E32643A25302E326400000070000020CF
:102A600050020020600200200080564000006440B8
:102A700000005E4087E5613352C1E03F4AD8124D05
:102A8000FB21194000006145FB210940000018406E
:102A9000FB21F93F00007042A4D5CFEBE9CEBA3F4D
:102AA000000080BF6000002064000020680000205B
:102AB0000080464000004E4000C052400246A02127
:102AC00078200D9B01F00EFE4FF6E07002F029F821
:102AD000129802F052FCCDE9040103F09BFC0022A5
:102AE000F74BCDE9060102F034FB0022F54BCDE9AE
:102AF000080102F087FACDE90A0102F025FC80B254
:102B00000D90129802F039FCCDE9040103F034FC79
:102B10000022EB4BCDE9060102F01BFB0022EA4B41
:102B2000CDE9080102F06EFACDE90A0102F00CFCD1
:102B300080B20C900246A02178200D9B01F0D2FDBE
:102B400047F6FF7001F0EDFF1898079002F0EBFBDD
:102B5000DE4ADF4BCDE9080102F0FBFA0022DD4B33
:102B6000CDE90A0102F067FBCDE90C0102F030FC6F
:102B70001090109802F001FCD44AD74BCDE9020125
:102B800002F0E1FACDE9040103F044FC0022D34B4A
:102B9000CDE9060102F0DDFA0022CA4BCDE90801B9
:102BA00002F030FACDE90A0102F0CEFB80B20D90BE
:102BB000109802F0E2FBC54AC74BCDE9020102F0D2
:102BC000C2FACDE9040103F0D7FB0022C34BCDE9E3
:102BD000060102F0BEFA0022BB4BCDE9080102F06B
:102BE00011FACDE90A0102F0AFFB80B20123052200
:102BF0000C900D9901F008FE4FF4FC6001F091FF7C
:102C0000139802F0BAFBCDE9040103F003FC0022A3
:102C1000B34BCDE9060102F09CFA0022A94BCDE9A5
:102C2000080102F0EFF9CDE90A0102F08DFB80B254
:102C30000D90139802F0A1FBCDE9040103F09CFB79
:102C40000022A74BCDE9060102F083FA00229E4B39
:102C5000CDE9080102F0D6F9CDE90A0102F074FBD2
:102C600080B20C900246A02178200D9B01F03AFD25
:102C70004FF4784001F055FF149802F07EFB994A1A
:102C8000994BCDE9000102F064FA904A924BCDE9EC
:102C9000020102F058FACDE9040103F0BBFB002267
:102CA000924BCDE9060102F054FA0022854BCDE9A2
:102CB000080102F0A7F9CDE90A0102F045FB80B254
:102CC0000D90149802F059FB864A874BCDE900011C
:102CD00002F03FFA7D4A804BCDE9020102F033FA5F
:102CE000CDE9040103F048FB0022804BCDE9060149
:102CF00002F02FFA0022744BCDE9080102F082F9AC
:102D0000CDE90A0102F020FB80B20C900246A0211E
:102D100078200D9B01F0E6FC754914980860754910
:102D2000139808607449129808607448FFF7BCFC57
:102D300073480068012804D172480068401C71493A
:102D4000086015B05DF814FB8AB000250026002449
:102D500001F01DFC6C4801F0D2FE00214FF47840D8
:102D600001F0D3FE694803886948028800210846BB
:102D700001F068FC01F01AF901F0F0FE01F022FF09
:102D800001F0A5FF00F096FD624800F0E8FD624802
:102D900000F0EBFCA0F5E1473846FEF7D5FA5F48B6
:102DA00001F0ADFE4FF6FF7001F0BBFE5548AFF2EB
:102DB0005C31026807A802F09FFE01F0A3FEA04666
:102DC00007A9404601F011FE0DE1554800680128B1
:102DD00012D1FEF795FA80464F4A4E49FFF726FC7E
:102DE0004C4A103207CA8DE807004A480FC8FFF75F
:102DF00064FC00204A49086001214A4801F0C9FEEC
:102E000001280BD1684600F0F0FD684600F093FD04
:102E10004AF2A5510420FDF72EFB00BF4FF40051EC
:102E2000414801F0B6FE01281BD1684600F036FE8D
:102E30001C226946384801F087FF01F0B7F801F01D
:102E40008DFE01F0BFFE344800F08FFCA0F5E14795
:102E50003846FEF779FA4AF2A5510420FDF70BFB3C
:102E600000BF2D4880682B49896888420ED12A48C6
:102E7000406828494968884208D1274800682549A0
:102E80000968884202D101201D4908601C48006879
:102E900001286ED11B4800680A2190FBF1F201FB6A
:102EA000120020B90EB9012000E00020064636B11C
:102EB000E5B34FF480711B48FDF729FF3CE066E065
:102EC000008046400000644000005E404AD8124D39
:102ED000FB21094000001840FB21F93F00805640CB
:102EE00000004E40A4D5CFEBE9CEBA3F00C052401F
:102EF000600000206400002068000020FFFF4F00F9
:102F0000A00100206C00002050020020420200209E
:102F10004002002028000020440000205802002029
:102F20009C0100200008014000100140FFE74FF421
:102F300080712D48FDF7EDFE052C00D10024641CA6
:102F4000062C1DD2DFE804F01C03070B0F162748E0
:102F500001F0E6FE14E0264801F0E2FE10E025480C
:102F600001F0DEFE0CE01D22E621B52001F0B5FEE9
:102F700006E01EE040228021FF2001F0AEFE00BFEF
:102F800000BF0DB9012000E00020054609E04FF424
:102F900080711548FDF7BDFE00221146104601F074
:102FA0009CFE1548AFF25451026807A802F0A4FD38
:102FB0000AE000240020104908600846AFF26C5176
:102FC000026807A802F098FD4FF6FF7001F0A9FD16
:102FD0000A4801F094FD01F095FD4FF0000807A9A3
:102FE000404601F002FDF0E600080140FF8080004D
:102FF0000080FF000EC9FF006C0000205802002076
:10300000704700BFFEE700BFFEE700BFFEE700BF5E
:10301000FEE7704770477047704710B50120FEF714
:10302000D9F938B10120FEF7E5F901200749086018
:10303000FEF7A2F90220FEF7CDF910B101200449F4
:1030400008600320FEF7D6F910BD00009C010020A7
:10305000A001002002460E2A70D2DFE802F08607A7
:103060001019222B353F49535D67727CF748405C4D
:1030700000F0080008B9002070470120FCE7F34881
:10308000405C00F0040008B90020F5E70120F3E7F8
:10309000EE48405C00F0020008B90020ECE7012097
:1030A000EAE7EA48405C00F0010008B90020E3E7E5
:1030B0000120E1E7E54B481C185C00F0800008B9EE
:1030C0000020D9E70120D7E7E04B481C185C00F04E
:1030D000400008B90020CFE70120CDE7DB4B481CBA
:1030E000185C00F0200008B90020C5E70120C3E704
:1030F000D64B481C185C00F0100008B90020BBE754
:103100000120B9E7D14B481C185C00F0080008B951
:103110000020B1E70120AFE7CC4B481C185C00F061
:10312000040008B90020A7E70120A5E7C74B481C09
:10313000185C00F0020010B900209DE715E00120A6
:103140009AE7C24B481C185C00F0010008B9002047
:1031500092E7012090E7BD4B881C185C00F08000CE
:1031600008B9002088E7012086E7002084E72DE9E0
:10317000FF4F83B00C461F466421039890FBF1F08B
:10318000C0B20190039890FBF1F201FB1200C5B2AE
:103190000198132806D00198142803D0002007B006
:1031A000BDE8F08F0198142806D105F1630000EB0B
:1031B00040001FFA80F904E0681E00EB40001FFA8F
:1031C00080F9A24909F10200085C00F0600A4FEAA8
:1031D0006A1A09F10200085C00F01F0BBAF1010F36
:1031E00004D1ABF1010000F0FF0803E00BF11E0079
:1031F00000F0FF080A2C07DA601E9549095C059863
:103200000844401E86B208E0A4F10A00914931F852
:10321000101005980844401E86B2022C08DDE917FC
:1032200005EB91718910A5EB810109B9701C86B27B
:1032300046453EDBA6EB080086B201240120029041
:103240000020009049460298FFF704FF10B94FF0A4
:103250001D0A01E04FF01E0A7C4911F80900C11750
:1032600000EB11714FEA211B1DE0A6EB0A0086B2AC
:103270000298401CC0B202905C4508D10098C0433F
:10328000C0B20090009820B9601CC4B201E0601C7C
:10329000C4B249460298FFF7DDFE10B94FF01D0A8F
:1032A00001E04FF01E0A5645DFDA701CC0B20590EF
:1032B0004FE0A8EB060000F0FF081DB963251320BE
:1032C000019001E0681EC5B2A9F103001FFA80F960
:1032D0000C245E4911F80900C11700EB11714FEA87
:1032E000211BBBF1000F02D10C20029001E00D2048
:1032F00002900020009049460298FFF7ABFE10B9FB
:103300004FF01D0A01E04FF01E0A1BE0A8EB0A0077
:1033100000F0FF080298401EC0B20290009808B961
:10332000601EC4B25C4503D10098C043C0B2009097
:1033300049460298FFF78EFE10B94FF01D0A01E0D2
:103340004FF01E0AD045E1DCAAEB0800401CC0B2D9
:103350000590019807F8010B07F8015B07F8014B8E
:103360000598387001201AE710B50A46B0F5F86FD5
:1033700009DBA0F5F86398B23C2390FBF3F403FB60
:103380001403D9B20AE0C0F5F86398B23C2390FB6D
:10339000F3F403FB1403C3F13C03D9B2117010BD65
:1033A00010B5002305E011F8014B00F8014B5C1C3F
:1033B000A3B29342F7DB10BD2DE9FC4105460E4652
:1033C00017461C460F2224A12046FFF7E9FF01AB58
:1033D0003A4631462846FFF7CAFE08B9BDE8FC81E7
:1033E0009DF805209DF8041001EBC10303EB0111CA
:1033F00002EB81006946FFF7B7FF9DF800000A2144
:1034000090FBF1F201FB1200174951F820800222D3
:1034100041462046FFF7C4FF9DF800000C2190FBB9
:10342000F1F201FB1200114951F8208002224146BD
:10343000A01CFFF7B5FF9DF8060001281AD1022253
:103440000BA1A01DFFF7ACFF1EE00000B464000854
:10345000BA670008C4670008BCD7D7D3C4EAD5FD53
:10346000D4C2B3F5D2BB0000D4000020FC00002081
:10347000D5FD00009DF80600401E8C4A52F8201031
:103480000222A01DFFF78CFF9DF807000A280EDD21
:103490009DF807000A2190FBF1F0854951F8208042
:1034A0000222414604F10A00FFF77AFF05E00222FA
:1034B00080A104F10A00FFF773FF9DF80700401E8A
:1034C0000A2190FBF1F201FB1200784951F82080AB
:1034D0000222414604F10C00FFF762FF00BF7DE7C6
:1034E0002DE9F04104460D46B4F5FA6F03DB40F6D2
:1034F0000200844202DD0020BDE8F0810DB10C2DF8
:1035000001DD0020F8E7681E4006010E0F2A01DBEE
:10351000481CC1B208464FEAE17C01EB5C7C4FEAF3
:10352000EC08A4F5FA6C0CEB4C0CC444DFF8888171
:1035300018F80C604FEAE17C01EB5C7C4FEAEC0C84
:10354000A1EBCC0C06FA0CFC0CF080075B48405C4D
:10355000187097B1012905D00B2903D0122901D089
:10356000152907D140F2FC70844203DA1878401C18
:10357000187002E01878401E18700120BCE72DE991
:10358000F8430546884614461E466B462246414689
:103590002846FFF7A5FF10B90020BDE8F883A8F181
:1035A00001004006070E0F2C01DB781CC7B29DF806
:1035B0000000844208D1424850F8271005223046C6
:1035C000FFF7EEFE0120E8E70F223EA13046FFF7AD
:1035D000E7FE9DF8000084420BDA394850F82710C6
:1035E0000422B01CFFF7DCFE9DF80000001BC4B2F3
:1035F0004DE0781C172801DD0020CEE7304A781C0A
:1036000052F820100422B01CFFF7CAFE0F2C0ADA71
:103610006B460F2241462846FFF762FF9DF80000E7
:10362000001BC4B233E0A8F101002A4911F8009050
:10363000B8F1020F17D1E91705EB91718910A5EBCD
:10364000810181B9642195FBF1F201FB125131B97D
:103650004FF4C87195FBF1F201FB125119B909F150
:10366000010000F0FF0908F10100C0B280460D28FA
:1036700001D14FF001086B46012241462846FFF771
:103680002FFFA9EB04009DF800100844C4B20A20E3
:1036900094FBF0F03030B0720A2094FBF0F100FBA4
:1036A00011403030F072012077E700002C0100203B
:1036B0005C010020B3F5000009670008A26700085C
:1036C00074000020C0EBC1A2B6ACBBB9D3D03F3F61
:1036D000CCEC0000D6670008F0B58DB0044630226F
:1036E000704901A801F030FB6069451E642195FB1B
:1036F000F1F12846EA1705EB9272C1EBA2014FF4F3
:10370000C87295FBF2F28F186069C11700EB9171D6
:103710008910A0EB810191B96422616991FBF2F3F8
:1037200002FB131131B99200616991FBF2F302FBC4
:10373000131121B92169022901DD012600E00026CB
:1037400040F26D1005FB00712069401E01AA52F87D
:1037500020000844E16808440644072096FBF0F185
:1037600000FB1160A0610DB0F0BD10B50146086905
:10377000801E0861002805DC08690C300861486972
:10378000401E48616423486990FBF3F04A69D317EF
:1037900002EB9373C0EBA3004FF4C87492FBF4F3F5
:1037A000034440F26F14086960430C2490FBF4F06A
:1037B0001844CB68034440F26D1402FB04303A4BCA
:1037C000C01A00EB40008B6803EBC000C0EB001098
:1037D0004B6803EB8000C0EB00100B6803EB80002C
:1037E00010BD2DE9F04107460C463048B7FBF0F616
:1037F000B7FBF0F100FB11784FF4616098FBF0F03B
:10380000A0604FF4616098FBF0F100FB11803C2157
:1038100090FBF1F060604FF4616098FBF0F100FB09
:1038200011803C2190FBF1F201FB1200206040F27C
:10383000B27509E005F0030010B94FF4B77001E06C
:1038400040F26D10361A6D1C05F0030010B94FF4EC
:10385000B77001E040F26D10B042EBDD6561606968
:10386000C11700EB91718910A0EB810111B91D20E6
:103870000F494860012505E0681E0D4951F82000F8
:10388000361A6D1C681E0A4951F82000B042F3DD5B
:103890001C2048602561701CE0602046FFF71CFF7B
:1038A000BDE8F081E46700088BFA0A00805101004E
:1038B0006C01002008B54FF4C060FCF745FD032003
:1038C0008DF8000001208DF8010000208DF8020025
:1038D00001208DF803006846FCF73BFD08BD10B5DC
:1038E00001214FF0C050FDF794FC0120FDF7BBFA19
:1038F000FCF798FD0120FDF705FC00BF6120FDF7F6
:1039000050FB0028FAD04FF40070FDF7FEFB0120B9
:10391000FDF701FCFDF739FDFDF72EFD0121032028
:10392000FDF7CEFCFDF728FD49F63F40FDF7FEFC14
:10393000FDF722FD10BD70B50446FFF7D0FFFDF77F
:103940001BFD2046FFF7C8FE2046FFF70EFFA0F53F
:10395000E1452846FDF7DDFCFDF70EFD70BD10B515
:1039600004460420FCF793FD4AF2A55188420ED08C
:10397000DFA002F0B1F8E6A002F0AEF82046FFF7B3
:10398000DAFF4AF2A5510420FCF775FD2AE0012177
:103990004FF0C050FDF73DFC0120FDF764FA012017
:1039A000FDF7B0FB00BF6120FDF7FBFA0028FAD05D
:1039B0007B20FDF7F6FA18B1DBA002F08DF806E0E7
:1039C0007A20FDF7EEFA10B1E0A002F085F8E8A049
:1039D00002F082F8FDF7D9FC01210320FDF770FC0D
:1039E000FDF7CAFCFDF746FC10BD38B504460020C3
:1039F0000090E7A002F070F80120E060206140F242
:103A0000E370606100BFF04802F066F86946EFA01D
:103A100001F0ACF90098172804D9EDA0009902F044
:103A20005BF806E0F3A0009902F056F80098A06059
:103A300000E0E8E700BF00BFF44802F04DF8694637
:103A4000E2A001F093F900983B2804D9E0A0009986
:103A500002F042F806E0EEA0009902F03DF800986E
:103A6000606000E0E8E700BF00BFEF4802F034F814
:103A70006946D6A001F07AF900983B2804D9D4A071
:103A8000009902F029F806E0E8A0009902F024F875
:103A90000098206000E0E8E700BF38BD38B5044674
:103AA00000200090E7A002F017F80120E0602061FC
:103AB00040F2E370606100BFF04802F00DF8694623
:103AC000C2A001F053F90098172804D9C0A00099AA
:103AD00002F002F806E0EAA0009901F0FDFF00986C
:103AE000A06000E0E8E700BF00BFEC4801F0F4FF91
:103AF0006946B6A001F03AF900983B2804D9B4A071
:103B0000009901F0E9FF06E0E5A0009901F0E4FF6B
:103B10000098606000E0E8E700BF00BFE74801F000
:103B2000DBFF6946A9A001F021F900983B2804D9E0
:103B3000A7A0009901F0D0FF06E0E1A0009901F0F4
:103B4000CBFF0098206000E0E8E700BF38BDF0B58B
:103B5000B9B005460C4605F5E14621463046FFF76B
:103B600040FEA06818B9606808B9206818B1DB4841
:103B7000006800282CD0227B217CA38A98B207AB56
:103B8000FFF7F5FA9DF81F0000909DF81E309DF894
:103B90001D209DF81C10D2A001F09EFF227B217CED
:103BA000A38A98B207ABFFF707FC07A9D5A001F0DD
:103BB00093FF227B217CA38A98B207ABFFF7DFFC3F
:103BC00018B107A9CFA001F087FF0020C349086002
:103BD0006069C01E0C2190FBF1F201FB1200CE497E
:103BE00051F82070DFF834C3A3695CF8233094E8FF
:103BF0000700CDE90232CDE90410D4E90310CDE984
:103C000000013B462946C648626901F065FF2A4625
:103C1000C4A107A801F070FF00F074FFC08800EB9A
:103C2000400087B207A9384600F0DFFEE068009048
:103C3000C2A107A8D4E9043201F05EFF00F062FFE0
:103C4000C08800EB800087B207A9384600F0CDFE9F
:103C50006069C01E0C2190FBF1F201FB1200BD490E
:103C600051F820703A46BCA107A801F045FF00F0CA
:103C700049FFC08800EB40004004070C07A9384604
:103C800000F0B3FEBA49A06951F82020B9A107A8F5
:103C900001F032FF00F036FFC088C0EBC00087B2F1
:103CA00007A9384600F0A1FE20680090B7A107A838
:103CB000D4E9013201F020FF00F024FFC088C004E5
:103CC000070C07A9384600F090FE39B0F0BD044655
:103CD0000CE0B5480068012808D1FDF711FB054646
:103CE0002146FFF734FF0020AF490860F1E70000EC
:103CF0000D0A0D0A20525443206E6F7420796574AA
:103D000020636F6E666967757265642E2E2E2E00B5
:103D10000D0A0D0A2052544320636F6E6669677561
:103D20007265642E2E2E2E000D0A0D0A20506F771C
:103D30006572204F6E205265736574206F636375E2
:103D4000727265642E2E2E2E000000000D0A0D0AE0
:103D50002045787465726E616C20526573657420BD
:103D60006F636375727265642E2E2E2E0000000044
:103D70000D0A204E6F206E65656420746F20636F9E
:103D80006E666967757265205254432E2E2E2E0082
:103D90000D0A3D3D3D3D3D3D3D3D3D3D3D3D3D3DB6
:103DA0003D3D3D3D3D3D3D3D3D3D3DC9E8D6C3CA60
:103DB000B1BCE43D3D3D3D3D3D3D3D3D3D3D3D3D99
:103DC0003D3D3D3D3D000000C0A6000825640000CB
:103DD0000D0A20C4FACAE4C8EBB5C4CAFDD7D6CAD6
:103DE000C73A2564A3ACB2BBB7FBBACFD2AAC7F31C
:103DF000000000000A0D2020CAB1D6D3B1BBC9E82B
:103E0000D6C3CEAA3A2025640A0D0000D8A7000820
:103E10000A0D2020B7D6D6D3B1BBC9E8D6C3CEAAE7
:103E20003A2025640A0D00004CA700080A0D202046
:103E3000C3EBD6D3B1BBC9E8D6C3CEAA3A2025641A
:103E40000A0D00000D0A3D3D3D3D3D3D3D3D3D3DE2
:103E50003D3D3D3D3D3D3D3D3D3D3D3DC9E8D6C33C
:103E6000C4D6D6D3CAB1BCE43D3D3D3D3D3D3D3D0C
:103E70003D3D3D3D3D3D3D3D3D3D000078A60008BA
:103E80000A0D2020C4D6D6D3CAB1D6D3B1BBC9E857
:103E9000D6C3CEAA3A2025640A0D000090A70008D8
:103EA0000A0D2020C4D6D6D3B7D6D6D3B1BBC9E825
:103EB000D6C3CEAA3A2025640A0D000004A7000844
:103EC0000A0D2020C4D6D6D3C3EBD6D3B1BBC9E8E4
:103ED000D6C3CEAA3A2025640A0D00003C02002079
:103EE0000D0A20BDF1CCECD0C2C0FAA3BA25302E09
:103EF000326425302E32642C25302E32642C25304D
:103F00002E3264000D0A20BDF1CCECC5A9C0FAA385
:103F1000BA25730D0A000000C0010020A401002092
:103F200028A6000820554E49582054696D655374E1
:103F3000616D70203D2025642000000020446174E4
:103F4000653A2025642D25642D256420202020201D
:103F5000202000000C020020204368696E65736514
:103F60002025732079656172202020202020000008
:103F7000F001002020257320202020202020202058
:103F80002020202020202020200000002054696DC7
:103F9000653A202025302E32643A25302E32643A9C
:103FA00025302E32640000009C01002000B585B051
:103FB00001210420FDF720F901218803FDF71CF9F8
:103FC0004FF40070ADF8100018208DF81300032096
:103FD0008DF8120004A92248FCF7ECFD4FF4806034
:103FE000ADF8100004208DF8130004A91C48FCF75C
:103FF000E1FD4FF4E13000900020ADF80400ADF891
:104000000600ADF80800ADF80C000C20ADF80A0071
:1040100069461448FEF749F901211248FEF7D1F923
:1040200005B000BD70B504460D46E1B20D48FEF77F
:1040300035FA00BF80210B48FEF79EFA0028F9D020
:10404000204670BD10B5044600BF20210548FEF78C
:1040500093FA0028F9D00348FEF724FA10BD0000B7
:10406000000801400038014001B502E00098401E00
:10407000009000980028F9D108BD08B50121602002
:10408000FDF7BAF803208DF8020018208DF8030020
:104090004FF48040ADF800006946FE48FCF78AFD09
:1040A0004FF40040ADF800006946FA48FCF782FD85
:1040B0000120ADF800006946F648FCF77BFD0220C0
:1040C000ADF800006946F348FCF774FD8020ADF8B8
:1040D00000006946F048FCF76DFD4FF48070ADF8C4
:1040E00000006946EC48FCF765FD4FF40070ADF840
:1040F00000006946E848FCF75DFD4FF48060ADF8CC
:1041000000006946E448FCF755FD4FF40060ADF847
:1041100000006946E048FCF74DFD4FF48050ADF8D3
:1041200000006946DC48FCF745FD4FF40050ADF84F
:1041300000006946D848FCF73DFD4FF48040ADF8DB
:1041400000006946D448FCF735FD4FF40040ADF857
:1041500000006946D048FCF72DFD4FF48070ADF8A3
:1041600000006946CB48FCF725FD4FF40070ADF820
:1041700000006946C748FCF71DFD4FF48060ADF8AC
:1041800000006946C348FCF715FD03208DF80200C6
:1041900018208DF803001020ADF800006946BD48D6
:1041A000FCF708FD2020ADF800006946B948FCF78F
:1041B00001FD8020ADF800006946B648FCF7FAFC26
:1041C0004FF40060ADF800006946B248FCF7F2FC1D
:1041D00010208DF8030003208DF802000220ADF8B6
:1041E00000006946AC48FCF7E5FC10208DF80300A0
:1041F00003208DF802004FF48050ADF800006946AE
:10420000A448FCF7D7FC08BD00B597B0012108020F
:10421000FCF7E5FF01200190042003908006079041
:1042200000200290049005900690089009900820C4
:104230000A9010200B9000200C900E900F90109080
:104240004FF480501190002012901390149001A808
:104250001590169008A8FCF793F901210020FCF7AF
:10426000F7FA17B000BD10B5CF2001F02BFC0020ED
:1042700001F02CFC812001F029FC302001F026FC0B
:10428000ED2001F01FFC642001F020FC032001F070
:104290001DFC122001F01AFC812001F017FCE8201F
:1042A00001F010FC852001F011FC102001F00EFC43
:1042B000782001F00BFCCB2001F004FC392001F048
:1042C00005FC2C2001F002FC002001F0FFFB342053
:1042D00001F0FCFB022001F0F9FBF72001F0F2FBFA
:1042E000202001F0F3FBEA2001F0ECFB002001F0BC
:1042F000EDFB002001F0EAFBB12001F0E3FB002020
:1043000001F0E4FB1B2001F0E1FBB62001F0DAFB39
:104310000A2001F0DBFBA22001F0D8FBC02001F055
:10432000D1FB352001F0D2FBC12001F0CBFB1120E5
:1043300001F0CCFBC52001F0C5FB452001F0C6FB18
:10434000452001F0C3FBC72001F0BCFBA22001F017
:10435000BDFBF22001F0B6FB002001F0B7FB2620E8
:1043600001F0B0FB012001F0B1FBE02001F0AAFB5D
:104370000F2001F0ABFB262001F0A8FB242001F068
:10438000A5FB0B2001F0A2FB0E2001F09FFB0920F2
:1043900001F09CFB542001F099FBA82001F096FB52
:1043A000462001F093FB0C2001F090FB172001F058
:1043B0008DFB092001F08AFB0F2001F087FB07200D
:1043C00001F084FB002001F081FBE12001F07AFB89
:1043D000002001F07BFB192001F078FB1B2001F08D
:1043E00075FB042001F072FB102001F06FFB072029
:1043F00001F06CFB2A2001F069FB472001F066FB0D
:10440000392001F063FB032001F060FB062001F07E
:104410005DFB062001F05AFB302001F057FB3820ED
:1044200001F054FB0F2001F051FB362001F04AFB54
:10443000C82001F04BFB2A2001F044FB002001F0D2
:1044400045FB002001F042FB002001F03FFBEF2084
:1044500001F03CFB2B2001F035FB002001F036FB86
:10446000002001F033FB012001F030FB3F2001F080
:104470002DFB3A2001F026FB552001F027FB1120EF
:1044800001F020FB0548FFF7EFFD292001F01AFBA2
:1044900010BD00000014014000180140FCBF0200E4
:1044A00010B50446072C00DD10BDFE480470204600
:1044B00004EBD0714910A4EB410139B9F020FA495D
:1044C00008804FF4A070F949088006E04FF4A0700E
:1044D000F5490880F020F5490880362001F0F2FA0D
:1044E000082141EA441001F0F1FA2A2001F0EAFA29
:1044F000002001F0EBFA002001F0E8FAEA4909880F
:10450000491EC1F3072001F0E1FAE7490978491E85
:10451000C8B201F0DBFA2B2001F0D4FA002001F040
:10452000D5FA002001F0D2FAE0490988491EC1F30A
:10453000072001F0CBFADD490978491EC8B201F025
:10454000C5FA2C2001F0BEFA00BFADE710B502217C
:10455000D748FCF7DEFB40F6FF20FFF785FD022180
:10456000D348FCF7D4FB40F6FF20FFF77DFD10BDDC
:1045700010B504462CB14FF48051CE48FCF7C9FB6E
:1045800004E04FF48051CB48FCF7C1FB10BD10B5DF
:10459000FFF773FDFFF738FE0120FFF7E9FFFFF794
:1045A000D5FFFFF760FEBF480078FFF779FF10BD29
:1045B0002DE9F04104460D4616461F462A2001F01B
:1045C00081FA201201F082FAE0B201F07FFAA1191B
:1045D000491EC1F30F2001F079FAA119491EC8B292
:1045E00001F074FA2B2001F06DFA281201F06EFA36
:1045F000E8B201F06BFAE919491EC1F30F2001F08E
:1046000065FAE919491EC8B201F060FABDE8F08107
:1046100070B504460D4601231A4629462046FFF789
:10462000C7FF70BD70B504460D4600262C2001F072
:1046300049FA00BF03E0284601F048FA761CA6427A
:10464000F9D370BD2DE9F04106460F4614461D46CC
:104650002B46224639463046FFF7AAFF04FB05F0F9
:1046600095490988FFF7DEFFBDE8F08170B5054682
:104670000C468D48008885420CDA8C4800888442BC
:1046800008DA21462846FFF7C3FF8C48018801203D
:10469000FFF7C8FF70BD70B50024002500262E204E
:1046A00001F010FA01F008FA044601F005FA044698
:1046B00001F002FA064601F0FFF90546E012C002D9
:1046C000A91240EA411040EAE62070BD70B50446E8
:1046D0000D4629462046FFF79BFFFFF7DCFF064605
:1046E000304670BD2DE9FF4F83B081464FF0000A80
:1046F000D3460598A0EB090504990698461ACDF80B
:10470000049004980090002D01DD012705E00DB90B
:10471000002702E04FF0FF376D42002E02DD4FF020
:10472000010806E016B94FF0000802E04FF0FF382C
:104730007642B54201DD2C4600E03446002002906E
:1047400019E0DDE90010FFF791FFAA44B344A24548
:1047500005DDAAEB040A0198384480B20190A34514
:1047600005DDABEB040B0098404480B2009002984A
:10477000401C80B20290611C02988842E1DD07B0C3
:10478000BDE8F08F2DE9F04104460D4616461F4660
:10479000DDF81880B8F1000F0CD03B4632462946B0
:1047A0002046FFF705FF06FB07F044490988FFF79D
:1047B00039FF27E0A019401E82B22B462946204629
:1047C000FFF790FFE819401E83B2A019401E82B285
:1047D000E819401E81B22046FFF784FFE819401E09
:1047E00083B2224629462046FFF77CFFE919491E7D
:1047F0008BB2A119491E8AB2A119491E88B2294655
:10480000FFF770FFBDE8F0812DE9F05F05460E4629
:1048100091469B4600240FFA89F70320A0EB49003C
:104820000FFA80FA97E0BBF1000F50D0A0464BE0A2
:1048300006EB080291B22A1990B2FFF717FF06EBB8
:10484000080291B22A1B90B2FFF710FF321991B201
:10485000A5EB080290B2FFF709FF321B91B2A5EB5E
:10486000080290B2FFF702FFA6EB080291B22A1BE2
:1048700090B2FFF7FBFEA6EB080291B22A1990B2A4
:10488000FFF7F4FE321B91B205EB080290B2FFF77E
:10489000EDFE321991B205EB080290B2FFF7E6FE89
:1048A0000EE00000440200204002002042020020EE
:1048B00000180140001401404E0200204C0200206C
:1048C00008F101000FFA80F8B845B1DD2FE0F219C8
:1048D00091B22A1990B2FFF7C9FEF21991B22A1BC0
:1048E00090B2FFF7C3FE321991B2EA1B90B2FFF704
:1048F000BDFE321B91B2EA1B90B2FFF7B7FEF21B6E
:1049000091B22A1B90B2FFF7B1FEF21B91B22A19A5
:1049100090B2FFF7ABFE321B91B2EA1990B2FFF7EB
:10492000A5FE321991B2EA1990B2FFF79FFE601C02
:1049300004B2BAF1000F05DAA000801D50440FFA4E
:1049400080FA07E0E01B80000A3050440FFA80FA3A
:10495000781E07B200BFBC427FF765AFBDE8F09F8D
:104960002DE9F05F804689461646A6F120001FFA21
:1049700080FA754909688988734A1268D28801FBF0
:1049800002F0C11700EB5171C1F3C7076E48006810
:1049900000680AFB070B6C480068C3886A48006817
:1049A000828849464046FFF703FE2C2001F08AF832
:1049B000002416E0002510E01BF8040080212941A6
:1049C000084020B16148008801F080F803E06048A9
:1049D000008801F07BF8681CC5B2082DECDB601C78
:1049E000C4B2BC42E6DBBDE8F09F70B504460D469C
:1049F000002624E03046544909688988084455490E
:104A00000988884205DD00264F480068C088204498
:104A100084B220464C490968C98808444E4909882F
:104A2000884201DD002600242A7821463046FFF71F
:104A300097FF6D1C444800688088304486B228780F
:104A40000028D7D170BD70B505460E46144624E047
:104A500028463D490968898808443E4909888842B2
:104A600005DD002538480068C088304486B23046ED
:104A700035490968C988084437490988884201DDF1
:104A800000250026227831462846FFF769FF641C7E
:104A90002D4800688088284485B220780028D7D126
:104AA00070BD70B505460E46144624E030462649D2
:104AB0000968C988084428490988884205DD002614
:104AC000214800688088284485B228461E49096824
:104AD000898808441F490988884201DD002500268D
:104AE000227831462846FFF73BFF641C16480068D1
:104AF000C088304486B220780028D7D170BD1249D2
:104B000008607047104800687047104A1080104ACB
:104B1000118070470D4A128802800D4A12880A805F
:104B200070470A490880704709490880704770B586
:104B30000446FFF7E7FFC5882B4606480288214652
:104B40000020FFF77FFD70BD480200204C020020CE
:104B50004E020020400200204202002008B5012140
:104B60001420FCF749FB0120ADF8000004208DF86B
:104B7000030069461148FCF71DF84FF40050ADF8EA
:104B8000000004208DF8030069460D48FCF712F878
:104B900008BD70B504460D4629462046FCF79DF831
:104BA000012808D100BF29462046FCF796F80128C5
:104BB000F9D0012070BD0020FCE700000008014092
:104BC0000010014008B501210420FCF715FB4FF44B
:104BD0008070ADF8000010208DF8030003208DF8E0
:104BE000020069460448FBF7E5FF4FF48071024874
:104BF000FCF78FF808BD00000008014008B501214E
:104C00000920FCF7F9FA01214C48FCF7A4F8202010
:104C1000ADF8000018208DF8030003208DF8020085
:104C200069464748FBF7C6FF0120ADF8000069461A
:104C30004348FBF7BFFF0220ADF80000694640483B
:104C4000FBF7B8FF08BD00B587B001210220FCF7D3
:104C5000E0FAFF20ADF8140040F2CF70ADF810007C
:104C60000020ADF81600ADF8120004A93548FCF795
:104C70009FFC6020ADF800000120ADF8020000208C
:104C8000ADF806000220ADF8080069462D48FCF793
:104C90000EFD08212B48FDF720F969462948FCF74D
:104CA00053FD08212748FDF725F969462548FCF7FB
:104CB00096FD08212348FDF726F901212148FDF73B
:104CC000D3F801211F48FCF7CFFF07B000BD10B596
:104CD000FFF794FFFFF7B7FF10BD1A4B383318806A
:104CE0001B1D19801B1D1A80704710B5002211462C
:104CF0001046FFF7F2FF00211248FCF7B5FF002134
:104D00000220FCF786FA20210D48FCF700F801216B
:104D10000B48FBF7FCFF02210948FBF7F8FF10BD29
:104D2000C0F30741074A38321180C0F30721121D32
:104D30001180C1B2121D11807047000000081A00D6
:104D4000000C01400004004040EA01039B0703D02F
:104D500009E008C9121F08C0042AFAD203E011F8BA
:104D6000013B00F8013B521EF9D270470FB400B569
:104D700089B00BA800906A4603480A9900F0A4FB8A
:104D800009B05DF814FB0000680200202DE9FF5F08
:104D90001D464FF0FF3BD5E9014691465F464FF077
:104DA0000008A9697F1C01988847296A82468847BC
:104DB0000028F6D1BAF1FF3F0CD024F4C064002ED5
:104DC00019DD600614D5BAF12B0F09D0BAF12D0FF9
:104DD0000ED103E0584604B0BDE8F09F44F480646F
:104DE000A9697F1C01988847761E8246002E02DD45
:104DF000BAF1300F03D0B9F1000F26D032E0A96923
:104E0000761E44F400747F1C019888478246002E69
:104E100005DDBAF1780F06D0BAF1580F03D0B9F119
:104E2000000F10D01EE0B9F1000F02D0B9F1100F41
:104E300018D1A969761E24F400747F1C0198884754
:104E40008246102002E0082000E00A20814609E0A6
:104E500008FB0908A969761E44F400747F1C0198B8
:104E600088478246002E05DD4946504600F01DFB6E
:104E70000028EDDAE96901988847A00502D46FF0AF
:104E80000100A8E7E00725D1600613D5600502D52B
:104E9000C8F1000000E0404629680A1D2A60096840
:104EA000220501D5087015E0220701D5088011E020
:104EB00008600FE02868011D29600068210502D5FF
:104EC00080F8008006E0210702D5A0F8008001E00C
:104ED000C0F8008038467EE7F0B480EA0102D40FC3
:104EE0004200B2EB410F02D20246084611464A0088
:104EF00042D0C30DDDB2C1F3C752AD1A202D35DA51
:104F0000C1F3160141F4000204B15242C5F120067A
:104F100002FA06F12A411044B3EBD05F23D0C4B1AA
:104F2000012DA0EBC35009DCF0BC4FF0004202EAB7
:104F3000C352DBB200F5000000F0D9BA400000F126
:104F4000807000EBC350A0F1807040EAD17049003E
:104F500009E0490841EAC071A0EBC35000F5000028
:104F6000400800EBC350F0BC00F0B8BA6142012227
:104F700002EB4101001BF6E7F0BC704781F00041F5
:104F8000AAE780F00040A7E730B480EA010202F00F
:104F9000004530F0004221F0004013D090B1C30D25
:104FA000D40DC2F31601C0F31600E41A41F4000157
:104FB00040F400027D34914201D3641C00E04900BA
:104FC000002C02DA30BC002070474FF400000023B0
:104FD000914201D3891A034340084FEA4101F7D1B6
:104FE00051B1914202D14FF0004105E002D24FF0A1
:104FF000010101E06FF0010103EBC450284430BC13
:1050000000F06CBA2DE9FE4F804681EA0300C00F24
:105010000C46009021F0004123F00045B8EB02005F
:10502000A94105D24046214690461C460B46024601
:1050300023F00040104347D0270DC7F30A00C3F305
:105040000A510290401A019040286BDAC3F3130012
:1050500040F4801B0098924620B10023D2EB030A53
:1050600063EB0B0B01985946C0F14002504600F02B
:10507000EBF906460D4650465946019A00F003FAF0
:1050800010EB08006141002487EA115284EAE773BB
:105090001A4340D0009A62B3019A012A4FEA07529C
:1050A00015DC001B61EB02014FF0004202EA0752DF
:1050B000CDE90042001C41F5801132462B4600F03C
:1050C00053FA03B0BDE8F08F40462146F9E7001BD4
:1050D00061EB0201001C41F5801300185B412018B0
:1050E000A2F5001747EB030140EAD570B6196D41F0
:1050F00011E06D084FEA360645EAC0754FEA0752DF
:10510000001B61EB0201001C41F5801149084FEAC8
:1051100030000019514132462B4603B0BDE8F04F34
:1051200000F013BA0098012240000023D0EB0202E5
:1051300063EBE073009821464FEAE074B8EB00009F
:1051400061EB0401E9E783F000435BE781F0004194
:1051500058E72DE9FE4F81EA030404F0004421F0F2
:10516000004100944FF0000B23F0004350EA01048B
:105170005ED052EA03045BD0C3F30A54C1F30A556C
:105180002C44A4F2F3340194A0FB0254C1F31301A4
:1051900041F48011C3F3130343F4801301FB024471
:1051A00000FB034E840A970A44EA815447EA835776
:1051B000A4FB076802958D0A05FB07854FEA932C2F
:1051C00004FB0C542705029D4FEA065847EA1637A0
:1051D000B5EB08056EEB070C870E920E47EA8117B8
:1051E00042EA8312A7FB0201B6EB0B0164EB000459
:1051F0002B0D43EA0C335E1844EB1C50DA46514643
:10520000E7FB0201C5F313044FEA0B3343EA1453DF
:105210004FEA0432019C43EA0603A4F10C04029411
:10522000009CCDE900B400F09FF903B0BDE8F08F19
:1052300000200146F9E72DE9F04D81EA030404F06E
:10524000004B21F0004514464FF0000A23F00041C6
:1052500050EA050220D054EA01021DD0C5F30A57D6
:105260000246C5F31303C1F31300C1F30A5640F419
:10527000801543F48013A7EB0608101BD64608F2EE
:10528000FD3873EB050002D308F1010801E0921824
:105290005B41B8F1000F03DA00200146BDE8F08D54
:1052A00000204FF48011064684460EE0171B73EB76
:1052B000050705D3121B63EB050306434CEA010CFB
:1052C00049084FEA300092185B4150EA0107EDD1DE
:1052D00052EA030012D082EA040083EA050108437F
:1052E00005D0101BAB4106D20122002306E00022AC
:1052F0004FF0004302E06FF0010253101AEB06007A
:105300004CEB085110EB0A0041EB0B01BDE8F04DEE
:1053100000F01BB9C10F80EAE0700844CA07962369
:10532000002100F0E4B80EB5C10F80EAE070084437
:10533000CA07002140F233438DE80E000A460B46AF
:1053400000F012F903B000BDC1F30A5210B5C1F369
:10535000130140F2FF3341F480119A4201DA002038
:1053600010BD40F233439A42A2F2334203DC524270
:1053700000F079F810BD904010BD00F0004230F010
:1053800000400AD0C10D01F56071C0F3160042EA79
:105390000151C20840071143704700200146704781
:1053A00030B5041E71F1000404DB4FF000444042AC
:1053B00064EB0101141E73F1000405DB1C464FF081
:1053C0000043524263EB04038B4208BF824230BD6C
:1053D00001F0004330B421F0004150EA010206D050
:1053E0000A0DA2F56072C1F31301002A02DC30BC81
:1053F00000207047440F44EAC104C100E01830BCEB
:1054000000EBC25000F06AB8002801DBC0F1004098
:10541000002901DBC1F100418142704730B50B46E4
:10542000014600202022012409E021FA02F59D42D4
:1054300005D303FA02F5491B04FA02F52844151EA8
:10544000A2F10102F1DC30BD202A04DB203A00FA8F
:1054500002F1002070479140C2F1200320FA03F3CB
:10546000194390407047202A04DB203A21FA02F0C9
:105470000021704721FA02F3D040C2F1200291408E
:10548000084319467047202A06DBCB17203A41FA19
:1054900002F043EAE07306E041FA02F3D040C2F1C1
:1054A000200291400843194670473A2800D230380C
:1054B00020F02002412A01D3A2F13700884201D313
:1054C0004FF0FF3070470000024B9361024BD361F5
:1054D00000F0C6B845400008455600080029A8BF9E
:1054E0007047401C490008BF20F00100704710B40D
:1054F000B0FA80FC00FA0CF050EA010404BF10BCC2
:10550000704749B1CCF1200421FA04F411FA0CF1EE
:1055100018BF012121430843A3EB0C01CB1D4FEA27
:1055200000614FEA102042BF002010BC704700EB22
:10553000C35010440029A4BF10BC7047401C490050
:1055400008BF20F0010010BC704710B5141E73F1A5
:10555000000408DA401C41F1000192185B411A4333
:1055600001D120F0010010BD2DE9F04D92469B467F
:1055700011B1B1FA81F202E0B0FA80F22032904625
:10558000FFF762FF04460F4640EA0A0041EA0B01BA
:1055900053465A46084313D0114653EA010019D026
:1055A000C8F140025046FFF75EFF05460E465046E2
:1055B00059464246FFF748FF084305D0012004E062
:1055C00020463946BDE8F08D0020054346EAE076E6
:1055D0002C4337430A986305E40AA0EB0800002235
:1055E000FD0A44EA47540A3002D500200146E9E7A3
:1055F000010510196941DDE9084500196941BDE857
:10560000F04DA2E7064C074D06E0E06840F00103CC
:1056100094E8070098471034AC42F6D3FAF78CFDB3
:10562000E4A8000804A90008094910B508784C1C32
:1056300018B1401E0870205C10BD00210720ABBED1
:10564000207010BD02490878421C0A7070470000A3
:1056500074020020026811441378016018467047F4
:10566000D160044951610449116200211161114660
:1056700000F04CB8555600080357000870B521F0EB
:10568000004303430CD0C1F30A550024D5EB0405B5
:1056900064EB0403D617AD1AB34102DB00200146C8
:1056A00070BD201841EB025170BD0EB540F2334180
:1056B00002910021CDE900110A460B46FFF754FF85
:1056C00003B000BD70B5C1F30A5201F000450024DB
:1056D000C1F3130140F2FF3341F480119A4201DA21
:1056E000002070BD40F233439A42A2F2334203DC01
:1056F0005242FFF7B8FE00E090402C43F1D0404208
:1057000070BDC0B24FF4F05100F096B92DE9F34FDF
:105710008BB04FF0000801F10C000C464FF0010B6C
:1057200046460DF1080A01906269012101989047EF
:1057300005002DD0252D2CD0216A8847C0B1626983
:10574000012101989047216A88470028F7D1411E1E
:1057500062690198904700E0761CA1690B98884720
:10576000216A88470028F7D1E1690B988847DBE771
:10577000A1690B9888470746A84201D1761CD3E758
:10578000E1690B9888477F1C02D1B8F1000F6FD0F8
:1057900046E1002762693D463946019890472A282C
:1057A00004D162690121019890470125DFF88492B4
:1057B0006269012101989047A0F130010A290AD2BB
:1057C0004F45E5DC07EB870100EB4107303FDFD4B5
:1057D00045F01005ECE7E90601D46FF000476C28AE
:1057E0000AD04C2814D0682815D06A280DD0742807
:1057F0001CD07A281AD01DE06269012101989047D7
:105800006C2802D045F0040514E045F002050DE0D7
:1058100045F020050AE06269012101989047682857
:1058200002D045F0080505E045F4006562690121F4
:1058300001989047C4E9015765283DD019DC5828E4
:105840007AD00CDC452837D004DC252826D0412826
:1058500031D131E046282FD047282CD12CE05B28CD
:1058600077D0612828D063287CD0642823D15AE0DF
:10587000D0E06F2848D008DC66281DD067281BD0F0
:10588000692821D06E2816D127E0702845D07328CA
:1058900068D0752847D078280DD14DE0A1690B98C4
:1058A0008847054625283FF469AFE1690B9888478A
:1058B0006D1C3FF46AAFB3E023466A466FF0010007
:1058C0000B99AFF300809EE045F040006060A807B0
:1058D00023464FF0000236D43EE0E8077FF447AF9E
:1058E0002068011D21600068290501D506701BE7AD
:1058F000290701D5068017E7A90703D5F117C0E9E5
:10590000006111E706600FE745F040006060A807FE
:1059100023464FF0080216D41EE040F60E0125EA99
:105920000100606016E045F040006060A807234673
:105930004FF00A0207D40FE045F040006060A8076E
:1059400008D5234610226FF001000B99AFF30080B9
:1059500059E007E0234610226FF001000B99FFF792
:1059600015FA50E04FF000094F464B46632802D02D
:105970005B2806D040E0E80601D40120A0600127A2
:105980003AE062690121019890475E2805D14FF005
:1059900001096269494601989047216939B9002196
:1059A0000A46534643F82120491C0829FADBB0B3C4
:1059B000216969B9C11700EBD16253110AEB830168
:1059C00022F01F02821A01200B68904003430B60F3
:1059D00062690121019890475D28E8D1B9F1000F73
:1059E00009D00020514651F82020D24341F8202010
:1059F000401C0828F7DB02AB224600976FF001003D
:105A00000B99AFF3008000280CDA401C08D1BBF1E1
:105A1000000F05D04FF0FF300DB0BDE8F08FFFE76D
:105A20004046F9E7E90701D108F1010806444FF0C3
:105A3000000B79E6CCCCCC0C7F2801D9002208E001
:105A4000064A02EB5002C007127800D1120902F098
:105A50000F020120904008407047000098A4000801
:105A600070B58C1810F8015B15F0070301D110F820
:105A7000013B2A1106D110F8012B03E010F8016B4D
:105A800001F8016B5B1EF9D12B0705D40023521ED0
:105A90000DD401F8013BFAE710F8013BCB1A921C38
:105AA00003E013F8015B01F8015B521EF9D5A14236
:105AB000D8D3002070BD0000014800887047000066
:105AC000000002604FF0C041088070470149088023
:105AD00070470000000002600FB4054B10B503A929
